:100000000200B480438C228D23E5234522600280C8
:10001000028010E52324FFF523E52234FFF522C2F8
:10002000908002D29030CF02800280DDC2CF30B605
:10003000028002800675200075210130B70280021F
:100040008005E4F520F5212280BB805275200075E3
:1000500021017590FE75CBB875CA6353C8FCD2AD4B
:10006000D2AFD2CAE521B40107E520B40002800274
:1000700080097C027D4412000380077C017D901280
:10008000000330B602800280067520007521013021
:10009000B70280028005E4F520F52180C72280ACFC
:1000A000E4F5D0758124F520F521F522F523120021
:0700B0004A0200000200A05B
:00000001FF
